{
  "contractName": "MyBetterERC721",
  "abi": [
    {
      "inputs": [],
      "stateMutability": "nonpayable",
      "type": "constructor"
    },
    {
      "anonymous": false,
      "inputs": [
        {
          "indexed": true,
          "internalType": "address",
          "name": "owner",
          "type": "address"
        },
        {
          "indexed": true,
          "internalType": "address",
          "name": "approved",
          "type": "address"
        },
        {
          "indexed": true,
          "internalType": "uint256",
          "name": "tokenId",
          "type": "uint256"
        }
      ],
      "name": "Approval",
      "type": "event"
    },
    {
      "anonymous": false,
      "inputs": [
        {
          "indexed": true,
          "internalType": "address",
          "name": "owner",
          "type": "address"
        },
        {
          "indexed": true,
          "internalType": "address",
          "name": "operator",
          "type": "address"
        },
        {
          "indexed": false,
          "internalType": "bool",
          "name": "approved",
          "type": "bool"
        }
      ],
      "name": "ApprovalForAll",
      "type": "event"
    },
    {
      "anonymous": false,
      "inputs": [
        {
          "indexed": false,
          "internalType": "address",
          "name": "receiver",
          "type": "address"
        },
        {
          "indexed": false,
          "internalType": "uint256",
          "name": "commission",
          "type": "uint256"
        }
      ],
      "name": "CommissionSent",
      "type": "event"
    },
    {
      "anonymous": false,
      "inputs": [
        {
          "indexed": true,
          "internalType": "address",
          "name": "previousOwner",
          "type": "address"
        },
        {
          "indexed": true,
          "internalType": "address",
          "name": "newOwner",
          "type": "address"
        }
      ],
      "name": "OwnershipTransferred",
      "type": "event"
    },
    {
      "anonymous": false,
      "inputs": [
        {
          "indexed": true,
          "internalType": "address",
          "name": "from",
          "type": "address"
        },
        {
          "indexed": true,
          "internalType": "address",
          "name": "to",
          "type": "address"
        },
        {
          "indexed": true,
          "internalType": "uint256",
          "name": "tokenId",
          "type": "uint256"
        }
      ],
      "name": "Transfer",
      "type": "event"
    },
    {
      "stateMutability": "payable",
      "type": "fallback"
    },
    {
      "inputs": [
        {
          "internalType": "address",
          "name": "to",
          "type": "address"
        },
        {
          "internalType": "uint256",
          "name": "tokenId",
          "type": "uint256"
        }
      ],
      "name": "approve",
      "outputs": [],
      "stateMutability": "nonpayable",
      "type": "function"
    },
    {
      "inputs": [
        {
          "internalType": "address",
          "name": "owner",
          "type": "address"
        }
      ],
      "name": "balanceOf",
      "outputs": [
        {
          "internalType": "uint256",
          "name": "",
          "type": "uint256"
        }
      ],
      "stateMutability": "view",
      "type": "function"
    },
    {
      "inputs": [],
      "name": "baseURI",
      "outputs": [
        {
          "internalType": "string",
          "name": "",
          "type": "string"
        }
      ],
      "stateMutability": "view",
      "type": "function"
    },
    {
      "inputs": [
        {
          "internalType": "uint256",
          "name": "tokenId",
          "type": "uint256"
        }
      ],
      "name": "getApproved",
      "outputs": [
        {
          "internalType": "address",
          "name": "",
          "type": "address"
        }
      ],
      "stateMutability": "view",
      "type": "function"
    },
    {
      "inputs": [
        {
          "internalType": "address",
          "name": "owner",
          "type": "address"
        },
        {
          "internalType": "address",
          "name": "operator",
          "type": "address"
        }
      ],
      "name": "isApprovedForAll",
      "outputs": [
        {
          "internalType": "bool",
          "name": "",
          "type": "bool"
        }
      ],
      "stateMutability": "view",
      "type": "function"
    },
    {
      "inputs": [],
      "name": "name",
      "outputs": [
        {
          "internalType": "string",
          "name": "",
          "type": "string"
        }
      ],
      "stateMutability": "view",
      "type": "function"
    },
    {
      "inputs": [],
      "name": "owner",
      "outputs": [
        {
          "internalType": "address",
          "name": "",
          "type": "address"
        }
      ],
      "stateMutability": "view",
      "type": "function"
    },
    {
      "inputs": [
        {
          "internalType": "uint256",
          "name": "tokenId",
          "type": "uint256"
        }
      ],
      "name": "ownerOf",
      "outputs": [
        {
          "internalType": "address",
          "name": "",
          "type": "address"
        }
      ],
      "stateMutability": "view",
      "type": "function"
    },
    {
      "inputs": [],
      "name": "renounceOwnership",
      "outputs": [],
      "stateMutability": "nonpayable",
      "type": "function"
    },
    {
      "inputs": [
        {
          "internalType": "address",
          "name": "from",
          "type": "address"
        },
        {
          "internalType": "address",
          "name": "to",
          "type": "address"
        },
        {
          "internalType": "uint256",
          "name": "tokenId",
          "type": "uint256"
        }
      ],
      "name": "safeTransferFrom",
      "outputs": [],
      "stateMutability": "nonpayable",
      "type": "function"
    },
    {
      "inputs": [
        {
          "internalType": "address",
          "name": "from",
          "type": "address"
        },
        {
          "internalType": "address",
          "name": "to",
          "type": "address"
        },
        {
          "internalType": "uint256",
          "name": "tokenId",
          "type": "uint256"
        },
        {
          "internalType": "bytes",
          "name": "_data",
          "type": "bytes"
        }
      ],
      "name": "safeTransferFrom",
      "outputs": [],
      "stateMutability": "nonpayable",
      "type": "function"
    },
    {
      "inputs": [
        {
          "internalType": "address",
          "name": "operator",
          "type": "address"
        },
        {
          "internalType": "bool",
          "name": "approved",
          "type": "bool"
        }
      ],
      "name": "setApprovalForAll",
      "outputs": [],
      "stateMutability": "nonpayable",
      "type": "function"
    },
    {
      "inputs": [
        {
          "internalType": "bytes4",
          "name": "interfaceId",
          "type": "bytes4"
        }
      ],
      "name": "supportsInterface",
      "outputs": [
        {
          "internalType": "bool",
          "name": "",
          "type": "bool"
        }
      ],
      "stateMutability": "view",
      "type": "function"
    },
    {
      "inputs": [],
      "name": "symbol",
      "outputs": [
        {
          "internalType": "string",
          "name": "",
          "type": "string"
        }
      ],
      "stateMutability": "view",
      "type": "function"
    },
    {
      "inputs": [
        {
          "internalType": "uint256",
          "name": "index",
          "type": "uint256"
        }
      ],
      "name": "tokenByIndex",
      "outputs": [
        {
          "internalType": "uint256",
          "name": "",
          "type": "uint256"
        }
      ],
      "stateMutability": "view",
      "type": "function"
    },
    {
      "inputs": [
        {
          "internalType": "address",
          "name": "owner",
          "type": "address"
        },
        {
          "internalType": "uint256",
          "name": "index",
          "type": "uint256"
        }
      ],
      "name": "tokenOfOwnerByIndex",
      "outputs": [
        {
          "internalType": "uint256",
          "name": "",
          "type": "uint256"
        }
      ],
      "stateMutability": "view",
      "type": "function"
    },
    {
      "inputs": [
        {
          "internalType": "uint256",
          "name": "tokenId",
          "type": "uint256"
        }
      ],
      "name": "tokenURI",
      "outputs": [
        {
          "internalType": "string",
          "name": "",
          "type": "string"
        }
      ],
      "stateMutability": "view",
      "type": "function"
    },
    {
      "inputs": [],
      "name": "totalSupply",
      "outputs": [
        {
          "internalType": "uint256",
          "name": "",
          "type": "uint256"
        }
      ],
      "stateMutability": "view",
      "type": "function"
    },
    {
      "inputs": [
        {
          "internalType": "address",
          "name": "from",
          "type": "address"
        },
        {
          "internalType": "address",
          "name": "to",
          "type": "address"
        },
        {
          "internalType": "uint256",
          "name": "tokenId",
          "type": "uint256"
        }
      ],
      "name": "transferFrom",
      "outputs": [],
      "stateMutability": "nonpayable",
      "type": "function"
    },
    {
      "inputs": [
        {
          "internalType": "address",
          "name": "newOwner",
          "type": "address"
        }
      ],
      "name": "transferOwnership",
      "outputs": [],
      "stateMutability": "nonpayable",
      "type": "function"
    },
    {
      "stateMutability": "payable",
      "type": "receive"
    },
    {
      "inputs": [
        {
          "internalType": "address",
          "name": "to",
          "type": "address"
        },
        {
          "internalType": "string",
          "name": "value",
          "type": "string"
        },
        {
          "internalType": "uint8",
          "name": "commission",
          "type": "uint8"
        }
      ],
      "name": "mint",
      "outputs": [
        {
          "internalType": "uint256",
          "name": "",
          "type": "uint256"
        }
      ],
      "stateMutability": "nonpayable",
      "type": "function"
    },
    {
      "inputs": [
        {
          "internalType": "uint256",
          "name": "tokenId",
          "type": "uint256"
        },
        {
          "internalType": "uint8",
          "name": "commission",
          "type": "uint8"
        }
      ],
      "name": "requestBuy",
      "outputs": [],
      "stateMutability": "payable",
      "type": "function"
    },
    {
      "inputs": [
        {
          "internalType": "address payable",
          "name": "from",
          "type": "address"
        },
        {
          "internalType": "address",
          "name": "to",
          "type": "address"
        },
        {
          "internalType": "uint256",
          "name": "tokenId",
          "type": "uint256"
        }
      ],
      "name": "sell",
      "outputs": [],
      "stateMutability": "nonpayable",
      "type": "function"
    },
    {
      "inputs": [
        {
          "internalType": "uint256",
          "name": "tokenId",
          "type": "uint256"
        }
      ],
      "name": "getBuyRequestsLength",
      "outputs": [
        {
          "internalType": "uint256",
          "name": "",
          "type": "uint256"
        }
      ],
      "stateMutability": "view",
      "type": "function"
    },
    {
      "inputs": [
        {
          "internalType": "uint256",
          "name": "tokenId",
          "type": "uint256"
        }
      ],
      "name": "getValue",
      "outputs": [
        {
          "internalType": "string",
          "name": "",
          "type": "string"
        }
      ],
      "stateMutability": "view",
      "type": "function"
    },
    {
      "inputs": [
        {
          "internalType": "address",
          "name": "user",
          "type": "address"
        },
        {
          "internalType": "uint256",
          "name": "tokenId",
          "type": "uint256"
        }
      ],
      "name": "getCommission",
      "outputs": [
        {
          "internalType": "uint8",
          "name": "",
          "type": "uint8"
        }
      ],
      "stateMutability": "view",
      "type": "function"
    },
    {
      "inputs": [
        {
          "internalType": "uint256",
          "name": "tokenId",
          "type": "uint256"
        }
      ],
      "name": "getBuyRequests",
      "outputs": [
        {
          "components": [
            {
              "internalType": "address",
              "name": "buyer",
              "type": "address"
            },
            {
              "internalType": "uint256",
              "name": "price",
              "type": "uint256"
            },
            {
              "internalType": "uint8",
              "name": "commission",
              "type": "uint8"
            }
          ],
          "internalType": "struct MyBetterERC721.BuyRequest[]",
          "name": "",
          "type": "tuple[]"
        }
      ],
      "stateMutability": "view",
      "type": "function"
    }
  ],
  "bytecode": "0x60806040523480156200001157600080fd5b506040518060400160405280600e81526020017f4d794265747465724552433732310000000000000000000000000000000000008152506040518060400160405280600e81526020017f4d59424554544552455243373231000000000000000000000000000000000000815250620000966301ffc9a760e01b620001c960201b60201c565b8160069080519060200190620000ae929190620002a9565b508060079080519060200190620000c7929190620002a9565b50620000e06380ac58cd60e01b620001c960201b60201c565b620000f8635b5e139f60e01b620001c960201b60201c565b6200011063780e9d6360e01b620001c960201b60201c565b5050600062000124620002a160201b60201c565b905080600a60006101000a81548173ffffffffffffffffffffffffffffffffffffffff021916908373ffffffffffffffffffffffffffffffffffffffff1602179055508073ffffffffffffffffffffffffffffffffffffffff16600073ffffffffffffffffffffffffffffffffffffffff167f8be0079c531659141344cd1fd0a4f28419497f9722a3daafe3b4186f6b6457e060405160405180910390a350620003c4565b63ffffffff60e01b817bffffffffffffffffffffffffffffffffffffffffffffffffffffffff1916141562000235576040517f08c379a00000000000000000000000000000000000000000000000000000000081526004016200022c9062000391565b60405180910390fd5b6001600080837bffffffffffffffffffffffffffffffffffffffffffffffffffffffff19167bffffffffffffffffffffffffffffffffffffffffffffffffffffffff1916815260200190815260200160002060006101000a81548160ff02191690831515021790555050565b600033905090565b828054600181600116156101000203166002900490600052602060002090601f016020900481019282601f10620002ec57805160ff19168380011785556200031d565b828001600101855582156200031d579182015b828111156200031c578251825591602001919060010190620002ff565b5b5090506200032c919062000330565b5090565b5b808211156200034b57600081600090555060010162000331565b5090565b60006200035e601c83620003b3565b91507f4552433136353a20696e76616c696420696e74657266616365206964000000006000830152602082019050919050565b60006020820190508181036000830152620003ac816200034f565b9050919050565b600082825260208201905092915050565b61466480620003d46000396000f3fe6080604052600436106101a05760003560e01c806370a08231116100ec578063a22cb4651161008a578063cae270b611610064578063cae270b61461061f578063e985e9c514610648578063ed4dba6b14610685578063f2fde38b146106c2576101a7565b8063a22cb46514610590578063b88d4fde146105b9578063c87b56dd146105e2576101a7565b80638da5cb5b116100c65780638da5cb5b146104c0578063922fcd63146104eb57806395d89b4114610528578063967ee12114610553576101a7565b806370a0823114610450578063715018a61461048d57806385c421ac146104a4576101a7565b806323b872dd116101595780634f6ccce7116101335780634f6ccce71461036e5780636352211e146103ab5780636a4b8883146103e85780636c0360eb14610425576101a7565b806323b872dd146102df5780632f745c591461030857806342842e0e14610345576101a7565b806301ffc9a7146101a957806306fdde03146101e6578063081812fc14610211578063095ea7b31461024e5780630ff4c9161461027757806318160ddd146102b4576101a7565b366101a757005b005b3480156101b557600080fd5b506101d060048036038101906101cb9190613416565b6106eb565b6040516101dd9190614004565b60405180910390f35b3480156101f257600080fd5b506101fb610752565b604051610208919061401f565b60405180910390f35b34801561021d57600080fd5b5061023860048036038101906102339190613468565b6107f4565b6040516102459190613f52565b60405180910390f35b34801561025a57600080fd5b50610275600480360381019061027091906133da565b610879565b005b34801561028357600080fd5b5061029e60048036038101906102999190613468565b610991565b6040516102ab919061401f565b60405180910390f35b3480156102c057600080fd5b506102c96109a3565b6040516102d69190614321565b60405180910390f35b3480156102eb57600080fd5b506103066004803603810190610301919061326d565b6109b4565b005b34801561031457600080fd5b5061032f600480360381019061032a91906133da565b610a14565b60405161033c9190614321565b60405180910390f35b34801561035157600080fd5b5061036c6004803603810190610367919061326d565b610a6f565b005b34801561037a57600080fd5b5061039560048036038101906103909190613468565b610a8f565b6040516103a29190614321565b60405180910390f35b3480156103b757600080fd5b506103d260048036038101906103cd9190613468565b610ab2565b6040516103df9190613f52565b60405180910390f35b3480156103f457600080fd5b5061040f600480360381019061040a9190613373565b610ae9565b60405161041c9190614321565b60405180910390f35b34801561043157600080fd5b5061043a610cd1565b604051610447919061401f565b60405180910390f35b34801561045c57600080fd5b50610477600480360381019061047291906131b9565b610d73565b6040516104849190614321565b60405180910390f35b34801561049957600080fd5b506104a2610e32565b005b6104be60048036038101906104b99190613491565b610f6f565b005b3480156104cc57600080fd5b506104d561109e565b6040516104e29190613f52565b60405180910390f35b3480156104f757600080fd5b50610512600480360381019061050d9190613468565b6110c8565b60405161051f9190613fe2565b60405180910390f35b34801561053457600080fd5b5061053d6111b7565b60405161054a919061401f565b60405180910390f35b34801561055f57600080fd5b5061057a600480360381019061057591906133da565b611259565b604051610587919061433c565b60405180910390f35b34801561059c57600080fd5b506105b760048036038101906105b29190613337565b611309565b005b3480156105c557600080fd5b506105e060048036038101906105db91906132bc565b61148a565b005b3480156105ee57600080fd5b5061060960048036038101906106049190613468565b6114ec565b604051610616919061401f565b60405180910390f35b34801561062b57600080fd5b50610646600480360381019061064191906131e2565b61166f565b005b34801561065457600080fd5b5061066f600480360381019061066a9190613231565b611b1f565b60405161067c9190614004565b60405180910390f35b34801561069157600080fd5b506106ac60048036038101906106a79190613468565b611bb3565b6040516106b99190614321565b60405180910390f35b3480156106ce57600080fd5b506106e960048036038101906106e491906131b9565b611bd3565b005b6000806000837bffffffffffffffffffffffffffffffffffffffffffffffffffffffff19167bffffffffffffffffffffffffffffffffffffffffffffffffffffffff1916815260200190815260200160002060009054906101000a900460ff169050919050565b606060068054600181600116156101000203166002900480601f0160208091040260200160405190810160405280929190818152602001828054600181600116156101000203166002900480156107ea5780601f106107bf576101008083540402835291602001916107ea565b820191906000526020600020905b8154815290600101906020018083116107cd57829003601f168201915b5050505050905090565b60006107ff82611d7f565b61083e576040517f08c379a0000000000000000000000000000000000000000000000000000000008152600401610835906141e1565b60405180910390fd5b6004600083815260200190815260200160002060009054906101000a900473ffffffffffffffffffffffffffffffffffffffff169050919050565b600061088482610ab2565b90508073ffffffffffffffffffffffffffffffffffffffff168373ffffffffffffffffffffffffffffffffffffffff1614156108f5576040517f08c379a00000000000000000000000000000000000000000000000000000000081526004016108ec90614281565b60405180910390fd5b8073ffffffffffffffffffffffffffffffffffffffff16610914611d9c565b73ffffffffffffffffffffffffffffffffffffffff16148061094357506109428161093d611d9c565b611b1f565b5b610982576040517f08c379a000000000000000000000000000000000000000000000000000000000815260040161097990614161565b60405180910390fd5b61098c8383611da4565b505050565b606061099c826114ec565b9050919050565b60006109af6002611e5d565b905090565b6109c56109bf611d9c565b82611e72565b610a04576040517f08c379a00000000000000000000000000000000000000000000000000000000081526004016109fb906142a1565b60405180910390fd5b610a0f838383611f50565b505050565b6000610a6782600160008673ffffffffffffffffffffffffffffffffffffffff1673ffffffffffffffffffffffffffffffffffffffff16815260200190815260200160002061216790919063ffffffff16565b905092915050565b610a8a8383836040518060200160405280600081525061148a565b505050565b600080610aa683600261218190919063ffffffff16565b50905080915050919050565b6000610ae2826040518060600160405280602981526020016146066029913960026121ad9092919063ffffffff16565b9050919050565b6000610af3611d9c565b73ffffffffffffffffffffffffffffffffffffffff16610b1161109e565b73ffffffffffffffffffffffffffffffffffffffff1614610b67576040517f08c379a0000000000000000000000000000000000000000000000000000000008152600401610b5e90614221565b60405180910390fd5b60008260ff1610158015610b7e575060648260ff16105b610bbd576040517f08c379a0000000000000000000000000000000000000000000000000000000008152600401610bb4906142e1565b60405180910390fd5b610bc7600b6121cc565b6000610bd3600b6121e2565b9050610bdf85826121f0565b610be9818561237e565b600c6000828152602001908152602001600020859080600181540180825580915050600190039060005260206000200160009091909190916101000a81548173ffffffffffffffffffffffffffffffffffffffff021916908373ffffffffffffffffffffffffffffffffffffffff16021790555082600d600083815260200190815260200160002060008773ffffffffffffffffffffffffffffffffffffffff1673ffffffffffffffffffffffffffffffffffffffff16815260200190815260200160002060006101000a81548160ff021916908360ff160217905550809150509392505050565b606060098054600181600116156101000203166002900480601f016020809104026020016040519081016040528092919081815260200182805460018160011615610100020316600290048015610d695780601f10610d3e57610100808354040283529160200191610d69565b820191906000526020600020905b815481529060010190602001808311610d4c57829003601f168201915b5050505050905090565b60008073ffffffffffffffffffffffffffffffffffffffff168273ffffffffffffffffffffffffffffffffffffffff161415610de4576040517f08c379a0000000000000000000000000000000000000000000000000000000008152600401610ddb90614181565b60405180910390fd5b610e2b600160008473ffffffffffffffffffffffffffffffffffffffff1673ffffffffffffffffffffffffffffffffffffffff1681526020019081526020016000206123f2565b9050919050565b610e3a611d9c565b73ffffffffffffffffffffffffffffffffffffffff16610e5861109e565b73ffffffffffffffffffffffffffffffffffffffff1614610eae576040517f08c379a0000000000000000000000000000000000000000000000000000000008152600401610ea590614221565b60405180910390fd5b600073ffffffffffffffffffffffffffffffffffffffff16600a60009054906101000a900473ffffffffffffffffffffffffffffffffffffffff1673ffffffffffffffffffffffffffffffffffffffff167f8be0079c531659141344cd1fd0a4f28419497f9722a3daafe3b4186f6b6457e060405160405180910390a36000600a60006101000a81548173ffffffffffffffffffffffffffffffffffffffff021916908373ffffffffffffffffffffffffffffffffffffffff160217905550565b600e600083815260200190815260200160002060405180606001604052803373ffffffffffffffffffffffffffffffffffffffff1681526020013481526020018360ff16815250908060018154018082558091505060019003906000526020600020906003020160009091909190915060008201518160000160006101000a81548173ffffffffffffffffffffffffffffffffffffffff021916908373ffffffffffffffffffffffffffffffffffffffff1602179055506020820151816001015560408201518160020160006101000a81548160ff021916908360ff16021790555050503073ffffffffffffffffffffffffffffffffffffffff166108fc349081150290604051600060405180830381858888f19350505050158015611099573d6000803e3d6000fd5b505050565b6000600a60009054906101000a900473ffffffffffffffffffffffffffffffffffffffff16905090565b6060600e6000838152602001908152602001600020805480602002602001604051908101604052809291908181526020016000905b828210156111ac57838290600052602060002090600302016040518060600160405290816000820160009054906101000a900473ffffffffffffffffffffffffffffffffffffffff1673ffffffffffffffffffffffffffffffffffffffff1673ffffffffffffffffffffffffffffffffffffffff168152602001600182015481526020016002820160009054906101000a900460ff1660ff1660ff1681525050815260200190600101906110fd565b505050509050919050565b606060078054600181600116156101000203166002900480601f01602080910402602001604051908101604052809291908181526020018280546001816001161561010002031660029004801561124f5780601f106112245761010080835404028352916020019161124f565b820191906000526020600020905b81548152906001019060200180831161123257829003601f168201915b5050505050905090565b600061126482611d7f565b6112a3576040517f08c379a000000000000000000000000000000000000000000000000000000000815260040161129a90614061565b60405180910390fd5b600d600083815260200190815260200160002060008473ffffffffffffffffffffffffffffffffffffffff1673ffffffffffffffffffffffffffffffffffffffff16815260200190815260200160002060009054906101000a900460ff16905092915050565b611311611d9c565b73ffffffffffffffffffffffffffffffffffffffff168273ffffffffffffffffffffffffffffffffffffffff16141561137f576040517f08c379a000000000000000000000000000000000000000000000000000000000815260040161137690614101565b60405180910390fd5b806005600061138c611d9c565b73ffffffffffffffffffffffffffffffffffffffff1673ffffffffffffffffffffffffffffffffffffffff16815260200190815260200160002060008473ffffffffffffffffffffffffffffffffffffffff1673ffffffffffffffffffffffffffffffffffffffff16815260200190815260200160002060006101000a81548160ff0219169083151502179055508173ffffffffffffffffffffffffffffffffffffffff16611439611d9c565b73ffffffffffffffffffffffffffffffffffffffff167f17307eab39ab6107e8899845ad3d59bd9653f200f220920489ca2b5937696c318360405161147e9190614004565b60405180910390a35050565b61149b611495611d9c565b83611e72565b6114da576040517f08c379a00000000000000000000000000000000000000000000000000000000081526004016114d1906142a1565b60405180910390fd5b6114e684848484612407565b50505050565b60606114f782611d7f565b611536576040517f08c379a000000000000000000000000000000000000000000000000000000000815260040161152d90614261565b60405180910390fd5b6060600860008481526020019081526020016000208054600181600116156101000203166002900480601f0160208091040260200160405190810160405280929190818152602001828054600181600116156101000203166002900480156115df5780601f106115b4576101008083540402835291602001916115df565b820191906000526020600020905b8154815290600101906020018083116115c257829003601f168201915b5050505050905060606115f0610cd1565b905060008151141561160657819250505061166a565b60008251111561163b578082604051602001611623929190613f2e565b6040516020818303038152906040529250505061166a565b8061164585612463565b604051602001611656929190613f2e565b604051602081830303815290604052925050505b919050565b611677612f29565b61168182846125aa565b905061168e8484846109b4565b60008160200151905060005b600c60008581526020019081526020016000208054905081101561184f576000600c600086815260200190815260200160002082815481106116d857fe5b9060005260206000200160009054906101000a900473ffffffffffffffffffffffffffffffffffffffff1690508573ffffffffffffffffffffffffffffffffffffffff168173ffffffffffffffffffffffffffffffffffffffff16141561173f5750611844565b6000600d600087815260200190815260200160002060008373ffffffffffffffffffffffffffffffffffffffff1673ffffffffffffffffffffffffffffffffffffffff16815260200190815260200160002060009054906101000a900460ff169050600060648260ff168602816117b257fe5b04905060008390507f33bfef697c184a8d0d52554d2ca3bff3bc8628785269331e6b53bb633ba1187c84836040516117eb929190613fb9565b60405180910390a18073ffffffffffffffffffffffffffffffffffffffff166108fc839081150290604051600060405180830381858888f19350505050158015611839573d6000803e3d6000fd5b508186039550505050505b80600101905061169a565b508473ffffffffffffffffffffffffffffffffffffffff166108fc829081150290604051600060405180830381858888f19350505050158015611896573d6000803e3d6000fd5b50600c6000848152602001908152602001600020849080600181540180825580915050600190039060005260206000200160009091909190916101000a81548173ffffffffffffffffffffffffffffffffffffffff021916908373ffffffffffffffffffffffffffffffffffffffff1602179055508160400151600d600085815260200190815260200160002060008673ffffffffffffffffffffffffffffffffffffffff1673ffffffffffffffffffffffffffffffffffffffff16815260200190815260200160002060006101000a81548160ff021916908360ff16021790555060005b600e600085815260200190815260200160002080549050811015611af8578473ffffffffffffffffffffffffffffffffffffffff16600e600086815260200190815260200160002082815481106119ce57fe5b906000526020600020906003020160000160009054906101000a900473ffffffffffffffffffffffffffffffffffffffff1673ffffffffffffffffffffffffffffffffffffffff161415611a2157611aed565b6000600e60008681526020019081526020016000208281548110611a4157fe5b906000526020600020906003020160000160009054906101000a900473ffffffffffffffffffffffffffffffffffffffff1690508073ffffffffffffffffffffffffffffffffffffffff166108fc600e60008881526020019081526020016000208481548110611aad57fe5b9060005260206000209060030201600101549081150290604051600060405180830381858888f19350505050158015611aea573d6000803e3d6000fd5b50505b80600101905061197b565b50600e60008481526020019081526020016000206000611b189190612f63565b5050505050565b6000600560008473ffffffffffffffffffffffffffffffffffffffff1673ffffffffffffffffffffffffffffffffffffffff16815260200190815260200160002060008373ffffffffffffffffffffffffffffffffffffffff1673ffffffffffffffffffffffffffffffffffffffff16815260200190815260200160002060009054906101000a900460ff16905092915050565b6000600e6000838152602001908152602001600020805490509050919050565b611bdb611d9c565b73ffffffffffffffffffffffffffffffffffffffff16611bf961109e565b73ffffffffffffffffffffffffffffffffffffffff1614611c4f576040517f08c379a0000000000000000000000000000000000000000000000000000000008152600401611c4690614221565b60405180910390fd5b600073ffffffffffffffffffffffffffffffffffffffff168173ffffffffffffffffffffffffffffffffffffffff161415611cbf576040517f08c379a0000000000000000000000000000000000000000000000000000000008152600401611cb6906140a1565b60405180910390fd5b8073ffffffffffffffffffffffffffffffffffffffff16600a60009054906101000a900473ffffffffffffffffffffffffffffffffffffffff1673ffffffffffffffffffffffffffffffffffffffff167f8be0079c531659141344cd1fd0a4f28419497f9722a3daafe3b4186f6b6457e060405160405180910390a380600a60006101000a81548173ffffffffffffffffffffffffffffffffffffffff021916908373ffffffffffffffffffffffffffffffffffffffff16021790555050565b6000611d9582600261277990919063ffffffff16565b9050919050565b600033905090565b816004600083815260200190815260200160002060006101000a81548173ffffffffffffffffffffffffffffffffffffffff021916908373ffffffffffffffffffffffffffffffffffffffff160217905550808273ffffffffffffffffffffffffffffffffffffffff16611e1783610ab2565b73ffffffffffffffffffffffffffffffffffffffff167f8c5be1e5ebec7d5bd14f71427d1e84f3dd0314c0f7b2291e5b200ac8c7c3b92560405160405180910390a45050565b6000611e6b82600001612793565b9050919050565b6000611e7d82611d7f565b611ebc576040517f08c379a0000000000000000000000000000000000000000000000000000000008152600401611eb390614141565b60405180910390fd5b6000611ec783610ab2565b90508073ffffffffffffffffffffffffffffffffffffffff168473ffffffffffffffffffffffffffffffffffffffff161480611f3657508373ffffffffffffffffffffffffffffffffffffffff16611f1e846107f4565b73ffffffffffffffffffffffffffffffffffffffff16145b80611f475750611f468185611b1f565b5b91505092915050565b8273ffffffffffffffffffffffffffffffffffffffff16611f7082610ab2565b73ffffffffffffffffffffffffffffffffffffffff1614611fc6576040517f08c379a0000000000000000000000000000000000000000000000000000000008152600401611fbd90614241565b60405180910390fd5b600073ffffffffffffffffffffffffffffffffffffffff168273ffffffffffffffffffffffffffffffffffffffff161415612036576040517f08c379a000000000000000000000000000000000000000000000000000000000815260040161202d906140e1565b60405180910390fd5b6120418383836127a4565b61204c600082611da4565b61209d81600160008673ffffffffffffffffffffffffffffffffffffffff1673ffffffffffffffffffffffffffffffffffffffff1681526020019081526020016000206127a990919063ffffffff16565b506120ef81600160008573ffffffffffffffffffffffffffffffffffffffff1673ffffffffffffffffffffffffffffffffffffffff1681526020019081526020016000206127c390919063ffffffff16565b50612106818360026127dd9092919063ffffffff16565b50808273ffffffffffffffffffffffffffffffffffffffff168473ffffffffffffffffffffffffffffffffffffffff167fddf252ad1be2c89b69c2b068fc378daa952ba7f163c4a11628f55a4df523b3ef60405160405180910390a4505050565b60006121768360000183612812565b60001c905092915050565b600080600080612194866000018661287f565b915091508160001c8160001c9350935050509250929050565b60006121c0846000018460001b84612902565b60001c90509392505050565b6001816000016000828254019250508190555050565b600081600001549050919050565b600073ffffffffffffffffffffffffffffffffffffffff168273ffffffffffffffffffffffffffffffffffffffff161415612260576040517f08c379a0000000000000000000000000000000000000000000000000000000008152600401612257906141c1565b60405180910390fd5b61226981611d7f565b156122a9576040517f08c379a00000000000000000000000000000000000000000000000000000000081526004016122a0906140c1565b60405180910390fd5b6122b5600083836127a4565b61230681600160008573ffffffffffffffffffffffffffffffffffffffff1673ffffffffffffffffffffffffffffffffffffffff1681526020019081526020016000206127c390919063ffffffff16565b5061231d818360026127dd9092919063ffffffff16565b50808273ffffffffffffffffffffffffffffffffffffffff16600073ffffffffffffffffffffffffffffffffffffffff167fddf252ad1be2c89b69c2b068fc378daa952ba7f163c4a11628f55a4df523b3ef60405160405180910390a45050565b61238782611d7f565b6123c6576040517f08c379a00000000000000000000000000000000000000000000000000000000081526004016123bd90614201565b60405180910390fd5b806008600084815260200190815260200160002090805190602001906123ed929190612f87565b505050565b600061240082600001612993565b9050919050565b612412848484611f50565b61241e848484846129a4565b61245d576040517f08c379a000000000000000000000000000000000000000000000000000000000815260040161245490614081565b60405180910390fd5b50505050565b606060008214156124ab576040518060400160405280600181526020017f300000000000000000000000000000000000000000000000000000000000000081525090506125a5565b600082905060005b600082146124d5578080600101915050600a82816124cd57fe5b0491506124b3565b60608167ffffffffffffffff811180156124ee57600080fd5b506040519080825280601f01601f1916602001820160405280156125215781602001600182028036833780820191505090505b50905060006001830390508593505b6000841461259d57600a848161254257fe5b0660300160f81b8282806001900393508151811061255c57fe5b60200101907effffffffffffffffffffffffffffffffffffffffffffffffffffffffffffff1916908160001a905350600a848161259557fe5b049350612530565b819450505050505b919050565b6125b2612f29565b60006125bc612f29565b60005b600e600087815260200190815260200160002080549050811015612726578473ffffffffffffffffffffffffffffffffffffffff16600e6000888152602001908152602001600020828154811061261257fe5b906000526020600020906003020160000160009054906101000a900473ffffffffffffffffffffffffffffffffffffffff1673ffffffffffffffffffffffffffffffffffffffff16141561271b5760019250600e6000878152602001908152602001600020818154811061268257fe5b90600052602060002090600302016040518060600160405290816000820160009054906101000a900473ffffffffffffffffffffffffffffffffffffffff1673ffffffffffffffffffffffffffffffffffffffff1673ffffffffffffffffffffffffffffffffffffffff168152602001600182015481526020016002820160009054906101000a900460ff1660ff1660ff168152505091505b8060010190506125bf565b50600115158215151461276e576040517f08c379a000000000000000000000000000000000000000000000000000000000815260040161276590614301565b60405180910390fd5b809250505092915050565b600061278b836000018360001b612b08565b905092915050565b600081600001805490509050919050565b505050565b60006127bb836000018360001b612b2b565b905092915050565b60006127d5836000018360001b612c13565b905092915050565b6000612809846000018460001b8473ffffffffffffffffffffffffffffffffffffffff1660001b612c83565b90509392505050565b60008183600001805490501161285d576040517f08c379a000000000000000000000000000000000000000000000000000000000815260040161285490614041565b60405180910390fd5b82600001828154811061286c57fe5b9060005260206000200154905092915050565b600080828460000180549050116128cb576040517f08c379a00000000000000000000000000000000000000000000000000000000081526004016128c2906141a1565b60405180910390fd5b60008460000184815481106128dc57fe5b906000526020600020906002020190508060000154816001015492509250509250929050565b60008084600101600085815260200190815260200160002054905060008114158390612964576040517f08c379a000000000000000000000000000000000000000000000000000000000815260040161295b919061401f565b60405180910390fd5b5084600001600182038154811061297757fe5b9060005260206000209060020201600101549150509392505050565b600081600001805490509050919050565b60006129c58473ffffffffffffffffffffffffffffffffffffffff16612d5f565b6129d25760019050612b00565b6060612a9963150b7a0260e01b6129e7611d9c565b8887876040516024016129fd9493929190613f6d565b604051602081830303815290604052907bffffffffffffffffffffffffffffffffffffffffffffffffffffffff19166020820180517bffffffffffffffffffffffffffffffffffffffffffffffffffffffff83818316178352505050506040518060600160405280603281526020016145d4603291398773ffffffffffffffffffffffffffffffffffffffff16612d729092919063ffffffff16565b9050600081806020019051810190612ab1919061343f565b905063150b7a0260e01b7bffffffffffffffffffffffffffffffffffffffffffffffffffffffff1916817bffffffffffffffffffffffffffffffffffffffffffffffffffffffff191614925050505b949350505050565b600080836001016000848152602001908152602001600020541415905092915050565b60008083600101600084815260200190815260200160002054905060008114612c075760006001820390506000600186600001805490500390506000866000018281548110612b7657fe5b9060005260206000200154905080876000018481548110612b9357fe5b9060005260206000200181905550600183018760010160008381526020019081526020016000208190555086600001805480612bcb57fe5b60019003818190600052602060002001600090559055866001016000878152602001908152602001600020600090556001945050505050612c0d565b60009150505b92915050565b6000612c1f8383612d8a565b612c78578260000182908060018154018082558091505060019003906000526020600020016000909190919091505582600001805490508360010160008481526020019081526020016000208190555060019050612c7d565b600090505b92915050565b6000808460010160008581526020019081526020016000205490506000811415612d2a57846000016040518060400160405280868152602001858152509080600181540180825580915050600190039060005260206000209060020201600090919091909150600082015181600001556020820151816001015550508460000180549050856001016000868152602001908152602001600020819055506001915050612d58565b82856000016001830381548110612d3d57fe5b90600052602060002090600202016001018190555060009150505b9392505050565b600080823b905060008111915050919050565b6060612d818484600085612dad565b90509392505050565b600080836001016000848152602001908152602001600020541415905092915050565b606082471015612df2576040517f08c379a0000000000000000000000000000000000000000000000000000000008152600401612de990614121565b60405180910390fd5b612dfb85612d5f565b612e3a576040517f08c379a0000000000000000000000000000000000000000000000000000000008152600401612e31906142c1565b60405180910390fd5b600060608673ffffffffffffffffffffffffffffffffffffffff168587604051612e649190613f17565b60006040518083038185875af1925050503d8060008114612ea1576040519150601f19603f3d011682016040523d82523d6000602084013e612ea6565b606091505b5091509150612eb6828286612ec2565b92505050949350505050565b60608315612ed257829050612f22565b600083511115612ee55782518084602001fd5b816040517f08c379a0000000000000000000000000000000000000000000000000000000008152600401612f19919061401f565b60405180910390fd5b9392505050565b6040518060600160405280600073ffffffffffffffffffffffffffffffffffffffff16815260200160008152602001600060ff1681525090565b5080546000825560030290600052602060002090810190612f849190613007565b50565b828054600181600116156101000203166002900490600052602060002090601f016020900481019282601f10612fc857805160ff1916838001178555612ff6565b82800160010185558215612ff6579182015b82811115612ff5578251825591602001919060010190612fda565b5b5090506130039190613061565b5090565b5b8082111561305d57600080820160006101000a81549073ffffffffffffffffffffffffffffffffffffffff021916905560018201600090556002820160006101000a81549060ff021916905550600301613008565b5090565b5b8082111561307a576000816000905550600101613062565b5090565b60008135905061308d81614549565b92915050565b6000813590506130a281614560565b92915050565b6000813590506130b781614577565b92915050565b6000813590506130cc8161458e565b92915050565b6000815190506130e18161458e565b92915050565b600082601f8301126130f857600080fd5b813561310b61310682614384565b614357565b9150808252602083016020830185838301111561312757600080fd5b6131328382846144f6565b50505092915050565b600082601f83011261314c57600080fd5b813561315f61315a826143b0565b614357565b9150808252602083016020830185838301111561317b57600080fd5b6131868382846144f6565b50505092915050565b60008135905061319e816145a5565b92915050565b6000813590506131b3816145bc565b92915050565b6000602082840312156131cb57600080fd5b60006131d98482850161307e565b91505092915050565b6000806000606084860312156131f757600080fd5b600061320586828701613093565b93505060206132168682870161307e565b92505060406132278682870161318f565b9150509250925092565b6000806040838503121561324457600080fd5b60006132528582860161307e565b92505060206132638582860161307e565b9150509250929050565b60008060006060848603121561328257600080fd5b60006132908682870161307e565b93505060206132a18682870161307e565b92505060406132b28682870161318f565b9150509250925092565b600080600080608085870312156132d257600080fd5b60006132e08782880161307e565b94505060206132f18782880161307e565b93505060406133028782880161318f565b925050606085013567ffffffffffffffff81111561331f57600080fd5b61332b878288016130e7565b91505092959194509250565b6000806040838503121561334a57600080fd5b60006133588582860161307e565b9250506020613369858286016130a8565b9150509250929050565b60008060006060848603121561338857600080fd5b60006133968682870161307e565b935050602084013567ffffffffffffffff8111156133b357600080fd5b6133bf8682870161313b565b92505060406133d0868287016131a4565b9150509250925092565b600080604083850312156133ed57600080fd5b60006133fb8582860161307e565b925050602061340c8582860161318f565b9150509250929050565b60006020828403121561342857600080fd5b6000613436848285016130bd565b91505092915050565b60006020828403121561345157600080fd5b600061345f848285016130d2565b91505092915050565b60006020828403121561347a57600080fd5b60006134888482850161318f565b91505092915050565b600080604083850312156134a457600080fd5b60006134b28582860161318f565b92505060206134c3858286016131a4565b9150509250929050565b60006134d98383613e99565b60608301905092915050565b6134ee81614475565b82525050565b6134fd81614463565b82525050565b61350c81614463565b82525050565b600061351d826143ec565b613527818561441a565b9350613532836143dc565b8060005b8381101561356357815161354a88826134cd565b97506135558361440d565b925050600181019050613536565b5085935050505092915050565b61357981614487565b82525050565b600061358a826143f7565b613594818561442b565b93506135a4818560208601614505565b6135ad81614538565b840191505092915050565b60006135c3826143f7565b6135cd818561443c565b93506135dd818560208601614505565b80840191505092915050565b60006135f482614402565b6135fe8185614447565b935061360e818560208601614505565b61361781614538565b840191505092915050565b600061362d82614402565b6136378185614458565b9350613647818560208601614505565b80840191505092915050565b6000613660602283614447565b91507f456e756d657261626c655365743a20696e646578206f7574206f6620626f756e60008301527f64730000000000000000000000000000000000000000000000000000000000006020830152604082019050919050565b60006136c6601483614447565b91507f746f6b656e496420646f65736e742065786973740000000000000000000000006000830152602082019050919050565b6000613706603283614447565b91507f4552433732313a207472616e7366657220746f206e6f6e20455243373231526560008301527f63656976657220696d706c656d656e74657200000000000000000000000000006020830152604082019050919050565b600061376c602683614447565b91507f4f776e61626c653a206e6577206f776e657220697320746865207a65726f206160008301527f64647265737300000000000000000000000000000000000000000000000000006020830152604082019050919050565b60006137d2601c83614447565b91507f4552433732313a20746f6b656e20616c7265616479206d696e746564000000006000830152602082019050919050565b6000613812602483614447565b91507f4552433732313a207472616e7366657220746f20746865207a65726f2061646460008301527f72657373000000000000000000000000000000000000000000000000000000006020830152604082019050919050565b6000613878601983614447565b91507f4552433732313a20617070726f766520746f2063616c6c6572000000000000006000830152602082019050919050565b60006138b8602683614447565b91507f416464726573733a20696e73756666696369656e742062616c616e636520666f60008301527f722063616c6c00000000000000000000000000000000000000000000000000006020830152604082019050919050565b600061391e602c83614447565b91507f4552433732313a206f70657261746f7220717565727920666f72206e6f6e657860008301527f697374656e7420746f6b656e00000000000000000000000000000000000000006020830152604082019050919050565b6000613984603883614447565b91507f4552433732313a20617070726f76652063616c6c6572206973206e6f74206f7760008301527f6e6572206e6f7220617070726f76656420666f7220616c6c00000000000000006020830152604082019050919050565b60006139ea602a83614447565b91507f4552433732313a2062616c616e636520717565727920666f7220746865207a6560008301527f726f2061646472657373000000000000000000000000000000000000000000006020830152604082019050919050565b6000613a50602283614447565b91507f456e756d657261626c654d61703a20696e646578206f7574206f6620626f756e60008301527f64730000000000000000000000000000000000000000000000000000000000006020830152604082019050919050565b6000613ab6602083614447565b91507f4552433732313a206d696e7420746f20746865207a65726f20616464726573736000830152602082019050919050565b6000613af6602c83614447565b91507f4552433732313a20617070726f76656420717565727920666f72206e6f6e657860008301527f697374656e7420746f6b656e00000000000000000000000000000000000000006020830152604082019050919050565b6000613b5c602c83614447565b91507f4552433732314d657461646174613a2055524920736574206f66206e6f6e657860008301527f697374656e7420746f6b656e00000000000000000000000000000000000000006020830152604082019050919050565b6000613bc2602083614447565b91507f4f776e61626c653a2063616c6c6572206973206e6f7420746865206f776e65726000830152602082019050919050565b6000613c02602983614447565b91507f4552433732313a207472616e73666572206f6620746f6b656e2074686174206960008301527f73206e6f74206f776e00000000000000000000000000000000000000000000006020830152604082019050919050565b6000613c68602f83614447565b91507f4552433732314d657461646174613a2055524920717565727920666f72206e6f60008301527f6e6578697374656e7420746f6b656e00000000000000000000000000000000006020830152604082019050919050565b6000613cce602183614447565b91507f4552433732313a20617070726f76616c20746f2063757272656e74206f776e6560008301527f72000000000000000000000000000000000000000000000000000000000000006020830152604082019050919050565b6000613d34603183614447565b91507f4552433732313a207472616e736665722063616c6c6572206973206e6f74206f60008301527f776e6572206e6f7220617070726f7665640000000000000000000000000000006020830152604082019050919050565b6000613d9a601d83614447565b91507f416464726573733a2063616c6c20746f206e6f6e2d636f6e74726163740000006000830152602082019050919050565b6000613dda602383614447565b91507f636f6d6d697373696f6e2068617320746f206265206265747765656e20302e2e60008301527f31303000000000000000000000000000000000000000000000000000000000006020830152604082019050919050565b6000613e40602583614447565b91507f4e6f20627579207265717565737420666f756e6420666f72207468697320616460008301527f64726573730000000000000000000000000000000000000000000000000000006020830152604082019050919050565b606082016000820151613eaf60008501826134f4565b506020820151613ec26020850182613edb565b506040820151613ed56040850182613ef9565b50505050565b613ee4816144df565b82525050565b613ef3816144df565b82525050565b613f02816144e9565b82525050565b613f11816144e9565b82525050565b6000613f2382846135b8565b915081905092915050565b6000613f3a8285613622565b9150613f468284613622565b91508190509392505050565b6000602082019050613f676000830184613503565b92915050565b6000608082019050613f8260008301876134e5565b613f8f6020830186613503565b613f9c6040830185613eea565b8181036060830152613fae818461357f565b905095945050505050565b6000604082019050613fce6000830185613503565b613fdb6020830184613eea565b9392505050565b60006020820190508181036000830152613ffc8184613512565b905092915050565b60006020820190506140196000830184613570565b92915050565b6000602082019050818103600083015261403981846135e9565b905092915050565b6000602082019050818103600083015261405a81613653565b9050919050565b6000602082019050818103600083015261407a816136b9565b9050919050565b6000602082019050818103600083015261409a816136f9565b9050919050565b600060208201905081810360008301526140ba8161375f565b9050919050565b600060208201905081810360008301526140da816137c5565b9050919050565b600060208201905081810360008301526140fa81613805565b9050919050565b6000602082019050818103600083015261411a8161386b565b9050919050565b6000602082019050818103600083015261413a816138ab565b9050919050565b6000602082019050818103600083015261415a81613911565b9050919050565b6000602082019050818103600083015261417a81613977565b9050919050565b6000602082019050818103600083015261419a816139dd565b9050919050565b600060208201905081810360008301526141ba81613a43565b9050919050565b600060208201905081810360008301526141da81613aa9565b9050919050565b600060208201905081810360008301526141fa81613ae9565b9050919050565b6000602082019050818103600083015261421a81613b4f565b9050919050565b6000602082019050818103600083015261423a81613bb5565b9050919050565b6000602082019050818103600083015261425a81613bf5565b9050919050565b6000602082019050818103600083015261427a81613c5b565b9050919050565b6000602082019050818103600083015261429a81613cc1565b9050919050565b600060208201905081810360008301526142ba81613d27565b9050919050565b600060208201905081810360008301526142da81613d8d565b9050919050565b600060208201905081810360008301526142fa81613dcd565b9050919050565b6000602082019050818103600083015261431a81613e33565b9050919050565b60006020820190506143366000830184613eea565b92915050565b60006020820190506143516000830184613f08565b92915050565b6000604051905081810181811067ffffffffffffffff8211171561437a57600080fd5b8060405250919050565b600067ffffffffffffffff82111561439b57600080fd5b601f19601f8301169050602081019050919050565b600067ffffffffffffffff8211156143c757600080fd5b601f19601f8301169050602081019050919050565b6000819050602082019050919050565b600081519050919050565b600081519050919050565b600081519050919050565b6000602082019050919050565b600082825260208201905092915050565b600082825260208201905092915050565b600081905092915050565b600082825260208201905092915050565b600081905092915050565b600061446e826144bf565b9050919050565b6000614480826144bf565b9050919050565b60008115159050919050565b60007fffffffff0000000000000000000000000000000000000000000000000000000082169050919050565b600073ffffffffffffffffffffffffffffffffffffffff82169050919050565b6000819050919050565b600060ff82169050919050565b82818337600083830152505050565b60005b83811015614523578082015181840152602081019050614508565b83811115614532576000848401525b50505050565b6000601f19601f8301169050919050565b61455281614463565b811461455d57600080fd5b50565b61456981614475565b811461457457600080fd5b50565b61458081614487565b811461458b57600080fd5b50565b61459781614493565b81146145a257600080fd5b50565b6145ae816144df565b81146145b957600080fd5b50565b6145c5816144e9565b81146145d057600080fd5b5056fe4552433732313a207472616e7366657220746f206e6f6e20455243373231526563656976657220696d706c656d656e7465724552433732313a206f776e657220717565727920666f72206e6f6e6578697374656e7420746f6b656ea2646970667358221220c369e21b9052bf4dd6114f2b6afef4b9fd4c8d48867a5681223f30844ee0150564736f6c634300060c0033",
  "immutableReferences": {},
  "source": "// SPDX-License-Identifier: MIT\npragma solidity >=0.6.0 <0.8.0;\npragma experimental ABIEncoderV2;\n\nimport \"@openzeppelin/contracts/token/ERC721/ERC721.sol\";\nimport \"@openzeppelin/contracts/access/Ownable.sol\";\nimport \"@openzeppelin/contracts/utils/Address.sol\";\nimport \"@openzeppelin/contracts/utils/Counters.sol\";\n\ncontract MyBetterERC721 is ERC721, Ownable {\n    using Counters for Counters.Counter;\n\n    struct BuyRequest {\n        address buyer;\n        uint256 price;\n        uint8 commission;\n    }\n\n    // TODO: remove this, I used it only for debugging\n    event CommissionSent(address receiver, uint256 commission);\n\n    Counters.Counter private _tokenIds;\n\n    // Mapping from token ID to address for commission\n    mapping(uint256 => address[]) private _commissionAddresses;\n\n    // Mapping from token ID to mapping from address to commission\n    mapping(uint256 => mapping(address => uint8)) private _commissions;\n\n    // Mapping from token ID to BuyRequest(buyer address and price)\n    mapping(uint256 => BuyRequest[]) private _buyRequests;\n\n    constructor() public ERC721(\"MyBetterERC721\", \"MYBETTERERC721\") {}\n\n    function mint(\n        address to,\n        string memory value,\n        uint8 commission\n    ) public onlyOwner returns (uint256) {\n        require(\n            commission >= 0 && commission < 100,\n            \"commission has to be between 0..100\"\n        );\n\n        _tokenIds.increment();\n        uint256 newId = _tokenIds.current();\n\n        _mint(to, newId);\n        _setTokenURI(newId, value);\n        _commissionAddresses[newId].push(to);\n        _commissions[newId][to] = commission;\n\n        return newId;\n    }\n\n    function requestBuy(uint256 tokenId, uint8 commission) public payable {\n        // TODO: require tokenId exists!!!\n        // TODO: require _msgSender doesnt own the token\n        _buyRequests[tokenId].push(\n            BuyRequest({\n                buyer: msg.sender,\n                price: msg.value,\n                commission: commission\n            })\n        );\n\n        payable(address(this)).transfer(msg.value);\n    }\n\n    function sell(\n        address payable from,\n        address to,\n        uint256 tokenId\n    ) public {\n        BuyRequest memory buyRequest = _findBuyRequest(tokenId, to);\n        transferFrom(from, to, tokenId);\n\n        uint256 priceLeft = buyRequest.price;\n        for (uint256 i = 0; i < _commissionAddresses[tokenId].length; ++i) {\n            address commissionReceiver = _commissionAddresses[tokenId][i];\n            if (commissionReceiver == to) {\n                continue;\n            }\n\n            uint8 commissionRate = _commissions[tokenId][commissionReceiver];\n            uint256 commission = (priceLeft * commissionRate) / 100;\n\n            address payable receiverWalet = payable(commissionReceiver);\n            emit CommissionSent(commissionReceiver, commission);\n            receiverWalet.transfer(commission);\n            priceLeft -= commission;\n        }\n\n        from.transfer(priceLeft);\n\n        _commissionAddresses[tokenId].push(to);\n        _commissions[tokenId][to] = buyRequest.commission;\n\n        for (uint256 i = 0; i < _buyRequests[tokenId].length; ++i) {\n            if (_buyRequests[tokenId][i].buyer == to) {\n                continue;\n            }\n\n            address payable buyer = payable(_buyRequests[tokenId][i].buyer);\n            buyer.transfer(_buyRequests[tokenId][i].price);\n        }\n\n        delete _buyRequests[tokenId];\n    }\n\n    // TODO: remove this later\n    function getBuyRequestsLength(uint256 tokenId)\n        public\n        view\n        returns (uint256)\n    {\n        return _buyRequests[tokenId].length;\n    }\n\n    function getValue(uint256 tokenId) public view returns (string memory) {\n        return tokenURI(tokenId);\n    }\n\n    function getCommission(address user, uint256 tokenId)\n        public\n        view\n        returns (uint8)\n    {\n        require(_exists(tokenId), \"tokenId doesnt exist\");\n        // TypeError: Operator != not compatible with types uint8 and address payable\n        // require(_commissions[tokenId][user] != address(0), \"address doesnt exist\");\n\n        return _commissions[tokenId][user];\n    }\n\n    function getBuyRequests(uint256 tokenId)\n        public\n        view\n        returns (BuyRequest[] memory)\n    {\n        return _buyRequests[tokenId];\n    }\n\n    receive() external payable {\n        //\n    }\n\n    fallback() external payable {\n        //\n    }\n\n    function _findBuyRequest(uint256 tokenId, address buyer)\n        private\n        view\n        returns (BuyRequest memory)\n    {\n        bool found = false;\n        BuyRequest memory buyRequest;\n\n        for (uint256 i = 0; i < _buyRequests[tokenId].length; ++i) {\n            if (_buyRequests[tokenId][i].buyer == buyer) {\n                found = true;\n                buyRequest = _buyRequests[tokenId][i];\n            }\n        }\n\n        require(found == true, \"No buy request found for this address\");\n        return buyRequest;\n    }\n}\n",
  "sourcePath": "/Users/rals/_SHARED_MAC/rubylogic/RND/transactions2/contracts/MyBetterERC721.sol",
  "compiler": {
    "name": "solc",
    "version": "0.6.12+commit.27d51765.Emscripten.clang"
  },
  "schemaVersion": "3.3.4",
  "updatedAt": "2021-03-02T14:24:57.580Z",
  "devdoc": {
    "kind": "dev",
    "methods": {
      "approve(address,uint256)": {
        "details": "See {IERC721-approve}."
      },
      "balanceOf(address)": {
        "details": "See {IERC721-balanceOf}."
      },
      "baseURI()": {
        "details": "Returns the base URI set via {_setBaseURI}. This will be automatically added as a prefix in {tokenURI} to each token's URI, or to the token ID if no specific URI is set for that token ID."
      },
      "getApproved(uint256)": {
        "details": "See {IERC721-getApproved}."
      },
      "isApprovedForAll(address,address)": {
        "details": "See {IERC721-isApprovedForAll}."
      },
      "name()": {
        "details": "See {IERC721Metadata-name}."
      },
      "owner()": {
        "details": "Returns the address of the current owner."
      },
      "ownerOf(uint256)": {
        "details": "See {IERC721-ownerOf}."
      },
      "renounceOwnership()": {
        "details": "Leaves the contract without owner. It will not be possible to call `onlyOwner` functions anymore. Can only be called by the current owner. NOTE: Renouncing ownership will leave the contract without an owner, thereby removing any functionality that is only available to the owner."
      },
      "safeTransferFrom(address,address,uint256)": {
        "details": "See {IERC721-safeTransferFrom}."
      },
      "safeTransferFrom(address,address,uint256,bytes)": {
        "details": "See {IERC721-safeTransferFrom}."
      },
      "setApprovalForAll(address,bool)": {
        "details": "See {IERC721-setApprovalForAll}."
      },
      "supportsInterface(bytes4)": {
        "details": "See {IERC165-supportsInterface}. Time complexity O(1), guaranteed to always use less than 30 000 gas."
      },
      "symbol()": {
        "details": "See {IERC721Metadata-symbol}."
      },
      "tokenByIndex(uint256)": {
        "details": "See {IERC721Enumerable-tokenByIndex}."
      },
      "tokenOfOwnerByIndex(address,uint256)": {
        "details": "See {IERC721Enumerable-tokenOfOwnerByIndex}."
      },
      "tokenURI(uint256)": {
        "details": "See {IERC721Metadata-tokenURI}."
      },
      "totalSupply()": {
        "details": "See {IERC721Enumerable-totalSupply}."
      },
      "transferFrom(address,address,uint256)": {
        "details": "See {IERC721-transferFrom}."
      },
      "transferOwnership(address)": {
        "details": "Transfers ownership of the contract to a new account (`newOwner`). Can only be called by the current owner."
      }
    },
    "version": 1
  },
  "userdoc": {
    "kind": "user",
    "methods": {},
    "version": 1
  }
}